{
  "contractName": "vendingmachine",
  "abi": [
    {
      "inputs": [],
      "stateMutability": "nonpayable",
      "type": "constructor"
    },
    {
      "inputs": [],
      "name": "owner",
      "outputs": [
        {
          "internalType": "address",
          "name": "",
          "type": "address"
        }
      ],
      "stateMutability": "view",
      "type": "function",
      "constant": true
    },
    {
      "inputs": [],
      "name": "getvendingmachinebalance",
      "outputs": [
        {
          "internalType": "uint256",
          "name": "",
          "type": "uint256"
        }
      ],
      "stateMutability": "view",
      "type": "function",
      "constant": true
    },
    {
      "inputs": [
        {
          "internalType": "uint256",
          "name": "amount",
          "type": "uint256"
        }
      ],
      "name": "restock",
      "outputs": [],
      "stateMutability": "nonpayable",
      "type": "function"
    },
    {
      "inputs": [
        {
          "internalType": "uint256",
          "name": "amount",
          "type": "uint256"
        }
      ],
      "name": "purchase",
      "outputs": [],
      "stateMutability": "payable",
      "type": "function",
      "payable": true
    }
  ],
  "bytecode": "0x608060405234801561001057600080fd5b50336000806101000a81548173ffffffffffffffffffffffffffffffffffffffff021916908373ffffffffffffffffffffffffffffffffffffffff1602179055506064600160003073ffffffffffffffffffffffffffffffffffffffff1673ffffffffffffffffffffffffffffffffffffffff1681526020019081526020016000208190555061076a806100a56000396000f3fe60806040526004361061003f5760003560e01c80634095d77d146100445780638da5cb5b1461006f578063c21a702a1461009a578063efef39a1146100c3575b600080fd5b34801561005057600080fd5b506100596100df565b60405161006691906103d1565b60405180910390f35b34801561007b57600080fd5b50610084610126565b604051610091919061042d565b60405180910390f35b3480156100a657600080fd5b506100c160048036038101906100bc9190610479565b61014a565b005b6100dd60048036038101906100d89190610479565b610231565b005b6000600160003073ffffffffffffffffffffffffffffffffffffffff1673ffffffffffffffffffffffffffffffffffffffff16815260200190815260200160002054905090565b60008054906101000a900473ffffffffffffffffffffffffffffffffffffffff1681565b60008054906101000a900473ffffffffffffffffffffffffffffffffffffffff1673ffffffffffffffffffffffffffffffffffffffff163373ffffffffffffffffffffffffffffffffffffffff16146101d8576040517f08c379a00000000000000000000000000000000000000000000000000000000081526004016101cf90610503565b60405180910390fd5b80600160003073ffffffffffffffffffffffffffffffffffffffff1673ffffffffffffffffffffffffffffffffffffffff16815260200190815260200160002060008282546102279190610552565b9250508190555050565b671bc16d674ec800008161024591906105a8565b341015610287576040517f08c379a000000000000000000000000000000000000000000000000000000000815260040161027e90610674565b60405180910390fd5b80600160003073ffffffffffffffffffffffffffffffffffffffff1673ffffffffffffffffffffffffffffffffffffffff168152602001908152602001600020541015610309576040517f08c379a0000000000000000000000000000000000000000000000000000000008152600401610300906106e0565b60405180910390fd5b80600160003073ffffffffffffffffffffffffffffffffffffffff1673ffffffffffffffffffffffffffffffffffffffff16815260200190815260200160002060008282546103589190610700565b9250508190555080600160003373ffffffffffffffffffffffffffffffffffffffff1673ffffffffffffffffffffffffffffffffffffffff16815260200190815260200160002060008282546103ae9190610552565b9250508190555050565b6000819050919050565b6103cb816103b8565b82525050565b60006020820190506103e660008301846103c2565b92915050565b600073ffffffffffffffffffffffffffffffffffffffff82169050919050565b6000610417826103ec565b9050919050565b6104278161040c565b82525050565b6000602082019050610442600083018461041e565b92915050565b600080fd5b610456816103b8565b811461046157600080fd5b50565b6000813590506104738161044d565b92915050565b60006020828403121561048f5761048e610448565b5b600061049d84828501610464565b91505092915050565b600082825260208201905092915050565b7f6f6e6c79206f776e65722063616e20726573746f636b00000000000000000000600082015250565b60006104ed6016836104a6565b91506104f8826104b7565b602082019050919050565b6000602082019050818103600083015261051c816104e0565b9050919050565b7f4e487b7100000000000000000000000000000000000000000000000000000000600052601160045260246000fd5b600061055d826103b8565b9150610568836103b8565b9250827fffffffffffffffffffffffffffffffffffffffffffffffffffffffffffffffff0382111561059d5761059c610523565b5b828201905092915050565b60006105b3826103b8565b91506105be836103b8565b9250817fffffffffffffffffffffffffffffffffffffffffffffffffffffffffffffffff04831182151516156105f7576105f6610523565b5b828202905092915050565b7f796f75206d757374207061792061746c656173742074776f206574686572207060008201527f657220636f666665650000000000000000000000000000000000000000000000602082015250565b600061065e6029836104a6565b915061066982610602565b604082019050919050565b6000602082019050818103600083015261068d81610651565b9050919050565b7f6e6f7420656e6f75676820636f66666565000000000000000000000000000000600082015250565b60006106ca6011836104a6565b91506106d582610694565b602082019050919050565b600060208201905081810360008301526106f9816106bd565b9050919050565b600061070b826103b8565b9150610716836103b8565b92508282101561072957610728610523565b5b82820390509291505056fea264697066735822122083156548aa27230a73e72097b9ff23027a9f4e5bdfb4f5a771514e1860b1271064736f6c634300080f0033",
  "immutableReferences": {},
  "source": "// SPDX-License-Identifier: MIT\n\npragma solidity ^0.8.15;\ncontract vendingmachine{\naddress public owner;\nmapping(address => uint) vendingbalance;\n\nconstructor(){\n    owner = msg.sender;\n    vendingbalance[address(this)] = 100;\n}\nfunction getvendingmachinebalance()public view returns(uint){\n    return vendingbalance[address(this)];\n\n}\n\nfunction restock(uint amount)public {\n     require(msg.sender == owner,\"only owner can restock\");\n    vendingbalance[address(this)] +=amount;\n}\nfunction purchase(uint amount) public payable{\nrequire(msg.value >=  amount *2 ether,\"you must pay atleast two ether per coffee\");\n require(vendingbalance[address(this)] >= amount, \"not enough coffee\");\nvendingbalance[address(this)] -=amount;\nvendingbalance[msg.sender] +=amount;\n\n}\n\n}",
  "sourcePath": "/home/lemon/Documents/contract/vendingcontract/contracts/vendingmachine.sol",
  "compiler": {
    "name": "solc",
    "version": "0.8.15+commit.e14f2714.Emscripten.clang"
  },
  "schemaVersion": "3.4.8",
  "updatedAt": "2022-07-13T03:44:40.389Z",
  "networkType": "ethereum",
  "devdoc": {
    "kind": "dev",
    "methods": {},
    "version": 1
  },
  "userdoc": {
    "kind": "user",
    "methods": {},
    "version": 1
  }
}